:020000040800F2
:10000000088A00209D010008DD5D0008654D00089C
:10001000D95D0008FF0600083D60000800000000F0
:10002000000000000000000000000000FD5E00086D
:100030002D07000800000000295E0008FF5E000890
:10004000B7010008B7010008B7010008B7010008B0
:10005000B7010008B7010008B7010008B7010008A0
:10006000B7010008B7010008B7010008B701000890
:10007000B7010008B7010008B7010008B701000880
:10008000B7010008B7010008B7010008B701000870
:10009000B7010008B7010008B7010008B701000860
:1000A000B7010008B7010008B7010008B701000850
:1000B000B7010008B7010008B7010008B701000840
:1000C000B7010008B7010008B7010008B701000830
:1000D000B7010008B7010008B7010008B701000820
:1000E000B7010008B7010008B7010008B701000810
:1000F000B7010008B7010008B7010008B701000800
:10010000B7010008B7010008B7010008B7010008EF
:10011000B7010008B7010008B7010008B7010008DF
:10012000B7010008B7010008B7010008B7010008CF
:10013000B7010008B7010008B7010008B7010008BF
:10014000B7010008B7010008B7010008B7010008AF
:10015000B7010008B7010008B7010008B70100089F
:10016000B7010008B7010008B7010008B70100088F
:10017000B7010008B7010008B7010008000000003F
:10018000B7010008B7010008DFF80CD000F068F8EC
:100190000048004759CD0008088A002006488047DB
:1001A00006480047FEE7FEE7FEE7FEE7FEE7FEE75C
:1001B000FEE7FEE7FEE7FEE7D95F000889010008D9
:1001C00010B5431A934209D28318881803E010F837
:1001D000011D03F8011D521EF9D210BD40EA0103B2
:1001E0009B0703D009E008C9121F08C0042AFAD2ED
:1001F00003E011F8013B00F8013B521EF9D210BD9B
:10020000D2B201E000F8012B491EFBD27047002258
:10021000F6E710B513460A4604461946FFF7F0FF05
:10022000204610BD421C10F8011B0029FBD1801A8A
:10023000704730B504460020034600E05B1C934243
:1002400003D2E05CCD5C401BF8D030BD034611F812
:10025000012B00F8012B002AF9D118467047000045
:10026000064C074D06E0E06840F0010394E8070003
:1002700098471034AC42F6D3FFF78AFF70EC0008C1
:1002800090EC000870B58C1810F8015B15F00703AE
:1002900001D110F8013B2A1106D110F8012B03E01F
:1002A00010F8016B01F8016B5B1EF9D12B0705D427
:1002B0000023521E0DD401F8013BFAE710F8013B70
:1002C000CB1A921C03E013F8015B01F8015B521E8C
:1002D000F9D5A142D8D3002070BD000038B54568DB
:1002E00004460146284605F0BFFE00282BD02068B2
:1002F000304A11280DD006DC0B2825D00E2833D02B
:100300000F2852D112E0282849D0B0F5107F4CD1E7
:1003100008E09268002A16D02146284601B0BDE8C0
:1003200030401047214628465268F7E7284601F03A
:10033000BFF80090406E0468684601F003F9002C95
:1003400001D02846A04738BD284601F0B1F80090FA
:10035000683001F011F8009803216C3001F014F8B6
:10036000684601F0EFF820E0E168486809680D2967
:1003700002D0202913D105E0002810DD28460AF01C
:1003800069FE06E0002804DD2846BDE838400AF092
:1003900061BE2846BDE8384002210AF071BEE0681F
:1003A00018B90021284600F079F92046BDE8384008
:1003B00006F0A6B9A8010020F0B5044685B0806912
:1003C000B4F90850668A0027CDE90265CDE9001727
:1003D0000490B4F90C00B4F91060C118B4F90A0023
:1003E000B4F90E50104433462A4600F007F805468B
:1003F000616800F05CF905B02846F0BDF0B585B045
:100400000C46DDE90D51DFF854C04C31DDE90A67D7
:10041000CDE902C12146CDE9006706F0C3F804002A
:1004200018D001F045F810222946049005F088FF05
:10043000049830220A493430FFF7C2FE084D04996F
:100440000C3D2868486604A801F07CF828684168DB
:100450002046884705B02046F0BD0000DD020008B8
:10046000B4010020F0B5044680688B4989B051F88A
:100470002050606800287DD0052804D006287AD056
:10048000122879D1AEE0E86900284FD095E80E0037
:100490008DE80F0004F110010FC903F057F8002692
:1004A00055F8260002F02EFAA169E8690A1A2169B6
:1004B00001446069304401F013FBA169E8690A1A3C
:1004C00021690144E069801B01F00AFBE169E869E8
:1004D0000A1A616901442069304401F065FBE16951
:1004E000E8690A1A61690144A069801B01F05CFB9C
:1004F000761C022ED4DBA86802F004FAE069E969F0
:100500006669431A206942183144801C521E01F06A
:100510008DFBE169E869A2690B1A61690144101A4F
:10052000401C921E01F082FBEE6913E05FF00006B2
:1005300055F8260002F0E6F9E069831BA069821BEA
:10054000606981192069304401F0F0FA761C022EAE
:10055000EEDB0226D5E90301CDE900016169E0691E
:1005600008444310A069891C821B2069304401F0B3
:1005700083FA02E089E012E08AE0D5E90501CDE9DD
:100580000001E36960690121184401EB6001A06981
:100590009B1E821B2069304401F06EFA78E02068CF
:1005A00000F086FF0490206807F082F940B1A0684F
:1005B00008B1002008E00498006F28B1012003E092
:1005C0000498406F00B10220049901EB8000C56ED1
:1005D00004A800F0B7FF00231A462846216801F05E
:1005E00071F955E0206800F063FF0490866EEEB369
:1005F000B0F95C70A168D1B3032942D05FF000016B
:1006000000EB8101406D0C6C02F086F9204602F08F
:1006100079F905A801F0A0FBBDF81410A88B0144DE
:10062000ADF81410BDF81810081AADF81800BDF890
:100630001600801CADF81600BDF81A00801EADF83B
:100640001A000498B0F96020B0F95E1005A802F015
:100650005AF804A800F076FF022002F09FF9304615
:1006600000F026FF3A4605A9079001E00BE006E0FE
:1006700001F0DCF90DF11C0000F064FF08E001213D
:10068000BEE70221BCE704A8F6E7206806F0F8FD03
:1006900009B00020F0BD000024EC00084FF4807287
:1006A0000029114601D005F06FBD05F0C9BC2DE948
:1006B000FF410E4605004FF001041CD000F0F8FE8B
:1006C0000190876E01A8009700F03CFF3146684614
:1006D00003F014FA78B100980024B84208D02846F4
:1006E00000F0E6FE01900099816601A800F02AFF63
:1006F000284606F0ECFB04B02046BDE8F08100BFC0
:10070000FEE700007CB506F003F9054600200090E6
:100710002B46044A04210190034800F0D5FF04460B
:1007200020467CBDDDCB0008D8CE000870472DE9FF
:10073000FC470E465FEA000978D000F0B9FE009051
:1007400090F85470D0F85880456BC46C684600F03F
:10075000F9FEB8F1000F04D03146484642469047B2
:1007600061E0122E18D006DC082E43D0102E3CD0AB
:10077000112E06D112E0132E21D01D2E43D01E2E95
:100780003DD0202E4FDB17B1484607F00EFFB1B227
:1007900048460AF0EDFA60B3611C27E04DB32846E5
:1007A00000F086FE05462146019002F0EDF944195D
:1007B000204602F0ABF901462346012210E0C5B104
:1007C000284600F075FE05462146019002F0DCF94E
:1007D0004419204602F09AF9014623464FF0FF32B1
:1007E000484607F0FBFC01A81BE0611E484600F0EC
:1007F000D8F918E0BCB1611E484600F0D2F948466D
:1008000007F0D3FE0FE0484600F052FE0090012FA3
:100810000ED0012180F854102146484600F0C1F95D
:10082000684600F08FFE484606F051FBBDE8FC87A5
:10083000002180F85410F3E77CB54568044628464B
:1008400007F036F806462146284605F00DFC00283C
:1008500044D020680F283DD004DC0B283FD00E2860
:1008600060D147E0A0F58070133804D0A0F5807007
:100870002D3857D11DE0284606F04EFC284600F0E2
:1008800017FE009010F8561F81F0040101706846B1
:1008900000F058FE002128460AF098FC284600F097
:1008A00007FE0090D0F88400002106F01BFC68468B
:1008B0001DE0E06860B1017A29B10168284600F0C6
:1008C000A3F8012100E00221284606F062FB29E09E
:1008D0000321F9E7012128460AF078FC7CBD28466F
:1008E00000F0E6FD0190343000F046FD01A800F074
:1008F00029FE17E0B6B1E0684168002912DD016801
:100900001B290FD006DC09290CD00A290AD00D2991
:1009100004D107E0212905D0222903D02846FFF77A
:1009200006FF7CBD204605F0EBFE7CBDF0B587B030
:1009300004460DF1080CD4E90567B0F90850408A67
:100940008CE8E1000020CDE90010B4F90C00B4F906
:100950001060C118B4F90A00B4F90E5010443346BF
:100960002A4600F009F8050002D0618A00F009F972
:1009700007B02846F0BD0000F0B585B00D46DDE9B2
:100980000D640F9FDDE90AC141F48051DFF870E08A
:10099000CDE900C16037CDE902E7294605F002FE46
:1009A00005002AD000F084FD10223146049005F0A5
:1009B000C7FC0498242213496030FFF701FC049916
:1009C000012081F85500601C00D0012081F88800CA
:1009D000002C00DC082424B20C87002048874863E0
:1009E00004A8641C00F0AEFD214628460AF0CDF8AC
:1009F00018B9284605F0B8FE002505B02846F0BD18
:100A000039080008A00000202DE9F04186B00C460E
:100A1000060050D000F04CFD0090406B98B300F001
:100A200047FD03900098806E01F076FF80463046C7
:100A300005F0BDFF0746039801F0B9F90546009897
:100A400090F8601001F00301012916D002290DD0A1
:100A5000416EC06A00680844241A641E039802F0BC
:100A6000F1FE0146002C0FDA002115E0781B401C36
:100A700000EBD070A4EB6004F0E7406E791B081A1D
:100A8000241A641CEAE713E0AC4205DC0246214666
:100A9000039802F081FE0146304600F082F803A878
:100AA00000F050FD404601F037FF304606F00FFAE7
:100AB000684600F047FD06B0BDE8F0812DE9FC472F
:100AC00088465FEA00094FF000064DD000F0F0FCC8
:100AD0000090B0F93850446B684600F033FD0027B1
:100AE000B8F1000F42D04CB1204600F0E1FC01907B
:100AF000FFF798FB461C01A800F024FD404602F0D9
:100B0000A1FE0446A84200DD2C462146404602F0E4
:100B10003BF8451CA91B48460AF0C6F908B34846ED
:100B200000F0C6FC0090406B00F0C2FC2A46414633
:100B30000190FFF745FB0198284400F8017C0098DC
:100B4000C464B0F938108C4205D190F854100129D2
:100B500001D1641EC46401A800F0F4FC684600F0F2
:100B6000F1FC484606F0B3F9BDE8FC87484600F0C2
:100B70009FFC0090343000F0FFFB00984787C7646B
:100B8000ECE738B50C4605000AD000F091FC009067
:100B900018B10466284606F09AF9684600F0D2FCBF
:100BA00038BD1CB50C4600F083FC0090406BF0B1E2
:100BB00000F07EFC019002F045FE009991F854206F
:100BC00002B10122002C00DA0024844200DD044638
:100BD000B1F93800801AA04200DA0446C86CA0427D
:100BE00000D0CC640020086501A800F0ABFC68468A
:100BF00000F0A8FC1CBD00BFFEE7000070B5044675
:100C00001D460023B5F5804F13D154F822300C480F
:100C10000340D1E9000640EA06108E6840EA06204B
:100C20008E8940EA06408E693043034344F82230FF
:100C300003E06FF0704044F82200002070BD000017
:100C40000000F0CF10B503460022086853F82020BA
:100C500012480240D1E901042043CC6820430C69CA
:100C600020434C6920438C692043CC6920430C6AA3
:100C700020434C6A20438C6A2043CC6A2043CC6BCF
:100C800020430C6B204302438868082801D142F0BE
:100C90004002086843F82020002010BD8000F0FFCB
:100CA00030B503460024501C53F8204004F0404463
:100CB000D1E9000540EA05108D6840EA05208D89DC
:100CC00040EA0545088A401E45EA0055087D801E19
:100CD00045EA00608D6928430443501C43F82040D6
:100CE000002030BD10B5002001F00AFE6FF07F40FB
:100CF00001F008FE012001F03FFE002001F044FE5B
:100D0000002001F04BFE002001F004FE04480068C2
:100D100001F002FEBDE81040002001F009BE000015
:100D20003000002070B50C46054600F0F3F8A868C6
:100D30002168C16261680163A1684163490707D501
:100D4000D0E90021C0E90012D0E90221C0E9021275
:100D5000A18981842169002903D001DC4FF00001C1
:100D6000016270BD2DE9F0411E46174688460546D2
:100D700000F0D0F8AC686822414604F58670FFF7B1
:100D80001FFA2846B8472846B04728698068804738
:100D9000A062BDE8F081000010B5044600F0BAF88A
:100DA000A0680C49C0F8AC100B49C0F8A8100B495A
:100DB000C0F8B0100A49C0F8B8100A49C0F8B41019
:100DC00030F8261F21F0030120F8161B0649816523
:100DD00010BD00003DBA0008EDBF000805BA0008CC
:100DE0007FB5000867B50008ADB9000810B5044626
:100DF00000F090F8A46810481021C4F8E4000F48EF
:100E0000C4F8E8000E48C4F8EC000E48C4F8F0003E
:100E10000D48C4F8A0000D48C4F8A400D4F8C400DC
:100E2000C4F8FC00D4F89420204690471020A0631A
:100E30000748606410BD00008D920008AD9F000857
:100E4000550E0008850F000849B5000865C3000865
:100E50002CE20008F8B5846815460F4694F8260081
:100E600080074CD5D4F80031204698470646D4F880
:100E700004312A46394620469847D4F8983005462A
:100E80001BB100220121204698472069B04201DDB4
:100E9000012000E00020A169B14201DA012100E057
:100EA000002108436169A94201DD012100E0002120
:100EB0000843E169A94201DA012100E00021084369
:100EC0000AD060680022401E00902368D4F8A87001
:100ED000114620465B1EB847D4F8AC302A4631464E
:100EE00020469847D4F8A01020468847D4F8983078
:100EF00005466BB1012200212046984708E0D4F84E
:100F0000AC3020469847D4F8A010204688470546C4
:100F10002846F8BD70B504468068002812D14FF409
:100F2000BA75284600F03EFA2A460021A06002F079
:100F30001BFEA0680221C1840121046401620249F0
:100F4000C0F8081170BD00004D0F000810B590B03A
:100F5000044620220A496846FFF732F90849202250
:100F6000203108A8FFF72CF9606B5DF82010C4F859
:100F7000001108A951F82000C4F8040110B010BDF8
:100F8000ACCF00082DE9F84384689846154694F8DC
:100F900026000F46800740D5D4F8003120469847F8
:100FA0000646D4F804312A46394620469847054675
:100FB0002069B04201DD012000E00020A169B142BA
:100FC00001DA012100E0002108436169A94201DD45
:100FD000012100E000210843E169A94201DA012171
:100FE00000E0002108430AD060680022401E009003
:100FF0002368D4F8A870114620465B1EB847D4F881
:10100000AC302A46314620469847D4F8A42001B097
:1010100041462046BDE8F0431047D4F8AC30F2E733
:101020002DE9F04FDFF828B191B04FF0FF35DBF834
:101030000030B3F922100691DE69B3F92490F46907
:10104000A189814206D8E289824203D3471AD4F8A3
:10105000008012E0D4E9018100296FD00A88824221
:101060006CD84D88854269D3801A82B2486800EBFB
:101070008200B0F90070B0F90250781C5ED0307E6A
:10108000A17C10FB01FA217CCDE90701B3F92A60AC
:10109000304604F09FFAC0B20E90DBF8000007FB68
:1010A0000A81A37C826B0127CDE90412CDE902738A
:1010B000C069089AC17E807ECDE90001DDE90603A2
:1010C000494603F067FE681C18D046F0020004F0A1
:1010D00081FADBF80000A37C05FB0A81826BCDE975
:1010E0000273CDE90412C069089AC17E807ECDE901
:1010F0000001DDE90603494603F04CFEDBF8000081
:101100005D46C069417E007E814214D9022E12D014
:1011100086F0040004F05EFA2868C069027EC37E8F
:1011200012FB0391437E857E089A06984B4412FB7E
:10113000050203F0BBFF0E9804F04CFADBF8000048
:10114000627C418C1144418411B0BDE8F08F0000F5
:101150003400002004480068C069C06909B1027CFD
:101160000A60407C704700003400002002200880A4
:101170007047C06982898A4202D8C2898A4210D2E5
:10118000806880B102888A420DD843888B420AD396
:10119000406800EB8100A0EB8200B0F9000000285D
:1011A00001DB012070470020704700002DE9F0436B
:1011B000304C034687B020681946B0F92A60C069F0
:1011C000C06900F086F8002850D041680088181ADD
:1011D00001EBC0053046AF7804F0FCF98146206889
:1011E0006A680123816BCDE90237CDE90421C16929
:1011F000CB7E8A7ECDE900230B7EB0F924102A78BD
:10120000B0F9220003F0C6FD2068C069417E027E6D
:1012100091421FD9C07E11FB00F812FB00F7022E8D
:1012200018D000F09EFD064600F07EFD01F06AFB3E
:1012300021682A78CB69B1F92200DB7E12FB030218
:10124000B1F9241001EB0803394403F02FFF3046B5
:1012500001F058FB484604F0BDF920686A78C3697C
:10126000B0F922109B7E12FB0311418407B0BDE848
:10127000F08300003400002030B50F4C05460B46CB
:1012800020682946C069C06900F023F8002812D000
:101290004168008824682A1A0120E46900EBC20032
:1012A000085CA47E10FB04F0002B04D011F832106F
:1012B00011FB04F1196030BD3400002001200880CA
:1012C000704700B5C06900F004F8002800D0012084
:1012D00000BD06E002888A4202D842888A4202D2D1
:1012E00080680028F6D17047002801D006F03CBE87
:1012F000704738B50546FFF7F7FF040009D000F046
:10130000D7F82A460021009002F02EFC684600F033
:1013100019F9204638BD0000024A106021F0030090
:10132000506070474084002010B5002814D0044657
:101330000A48406B10F8341000290DD002290BD256
:10134000042101EBC4014158486806F0C5FD204660
:10135000BDE810400AF0E4B810BD00008083002012
:10136000002805D0034AD16B016001B14860D06309
:10137000704700008083002010B504460068FFF726
:10138000D3FF0020206010BD70B50D460646002436
:1013900005E000BF06EB8400FFF7EEFF641CAC42E3
:1013A000F8DB70BD2DE9F041044609F08DFC2848BA
:1013B000E41C24F00305016C2D1DA94200D90D4643
:1013C000C46B13E054F8042CAA420ED184B12168F6
:1013D00009B162684A60616809B122680A60C26B3B
:1013E000A24231D12168C1632EE02468002CE9D1EA
:1013F0008046816BC0680F1857F8040C3E1A30689D
:1014000038B100200AF050F957F8040C3E1A306841
:10141000D0B97068A84217DB3044441B3046241D05
:101420000AF0FAF8D8F80C10491BC8F80C10D8F8D4
:1014300014102944C8F814107068401B02D03146BB
:1014400006F04AFD44F8045C2046BDE8F081000047
:101450008083002010B5002409F036FC0C490F20D1
:1014600001EBC002526C1AB101EBC000406C08E005
:10147000401EF5D508E04168A14200D90C468068BD
:1014800010B180680028F6D1A4F10C0010BD000056
:1014900080830020002138B10449042202EBC000FF
:1014A000496B085841680C39084670478083002012
:1014B0000549CA69521CCA61496B01EBC0010A782F
:1014C000521C0A7000F056B8808300207CB5064696
:1014D0000C460846FFF708FF05001CD0DEB1304679
:1014E000FFF7D8FFA04200DA04462846FFF7E0FFE6
:1014F00000903046FFF7DCFF01460190224600983D
:10150000FEF75EFE684600F01DF801A800F01AF82C
:101510003046FFF709FF28467CBD000010B5FFF7F5
:1015200099FF64220649B0F5800F04D990FBF2F0D0
:10153000096A484310BD096A4143B1FBF2F010BD8E
:10154000808300200A4902684B6B52F8082C03EB99
:10155000C2021378022B03D3CB690BB15B1ECB61A4
:101560001178491E11700021016008467047000083
:1015700080830020002806D00349042202EBC0002B
:10158000496B0858083070478083002070B50646C4
:101590000D461446104600F0EBFB0300164804EB22
:1015A00084010AD050F8210041688068711A2A1A13
:1015B000BDE87040184601F0B9B900EB8104A2689B
:1015C000B24201D0012200E00022E368AB4201D028
:1015D000012300E000231A430CD0236943B150F8E3
:1015E0002100816840686A1A311A184601F058F9DA
:1015F000C4E9026570BD0000C885002010B5C2B204
:10160000CBB2D21A00D5524293B25B43C0F3072249
:10161000C1F30724121B00D55242000C92B2A0EB7A
:10162000114002FB023200B2002801DA404200B24F
:1016300080B200FB002010BD10B50021084600F06C
:10164000EBFB43F6FF725042BDE8104013460146E3
:10165000AFF300802DE9FC4107461C4615460E46B7
:10166000042003F0B7FF80461148C068C16C006DCC
:101670000F4406440D440444ADF80070ADF8045026
:10168000ADF80260ADF80640684605F09DFF07E042
:1016900023462A463146384603F008FD05F056FF3A
:1016A0000028F5D1404603F095FFBDE8FC8100001D
:1016B00028000020B0F90630B0F90420B0F902107B
:1016C000B0F90000FFF7C6BF2DE9F8431C00DDE9C3
:1016D000089816460F46054602D105F019F904464A
:1016E00000962E6843464A4621462846B047061EC5
:1016F00035D005F001F98146698A304604F044FD91
:10170000304605F009FE484605F006FE4FF0000899
:101710000CE000BFCDF8008055F81CCF00231A461E
:1017200049462846E047E0B105F0F6FD7F1E002F50
:10173000F0DC1D21484605F012FD601C0ED005F0BE
:101740000DF930B1FFF716FF8469B44201D02000D3
:10175000F8D1B44202D0304605F06AFD3046BDE80B
:10176000F883304605F000F80020F8E72DE9F04155
:101770001C4616460D460746022B02DB0020BDE83C
:10178000F0811C20FFF70EFE0028F8D00DB1056196
:101790000AE0094A52F8241009B905E011460A681E
:1017A000002AFBD109690161846186820021016000
:1017B0004160C0E90217E2E74C00002070B51D4609
:1017C000FFF7D4FF040009D000F00EF8E0680068CD
:1017D00020B90348006800EB85008465204670BD91
:1017E00034000020FFF7BCBD70B590B38269022AB7
:1017F00030DA1E4C54F8221019B944F8220032E0B5
:1018000019464B68002BFBD106E0CB68C5681B6806
:101810002D68AB4203DD09680029F6D11AE0C1B199
:10182000CB68C6681B683668B3420CD1838A012B2B
:1018300005D008E01946DB681B68AB4203DB0B6888
:10184000002BF7D129B14B6833B118604A68426068
:1018500004E0FFE7012070BD44F8220048608842A0
:1018600000D100210160002070BD00004C0000206C
:101870000A4A816952F82130834202D1036842F852
:101880002130416809B102680A60016809B1426803
:101890004A60002101604160704700004C00002058
:1018A000022801DB00207047054951F8200004E0C0
:1018B000C16809680029F6D000680028F8D170478F
:1018C0004C0000202DE9F8431D46164688460400CA
:1018D0000CD0FFF7EDFD0090006807686846FFF741
:1018E00031FE2B46324641462046B847BDE8F883D4
:1018F00070B5044601F06EFA051908E000F074F9BD
:10190000052C01DD052000E0204601F055FA01F02C
:1019100061FA2C1A002CF1DC70BD00002DE9FC47A7
:1019200006005BD000F02EFA3B4C81462068B0F9EF
:10193000228000F049FA216807468A8CD01B8884EF
:1019400041E000BF47F6FF71304601F05FFF82467D
:101950000146304601F030FF2168054691F82C0021
:1019600000F0030001283FD0022839D000204A8C23
:10197000101A4884ADF800006A1E1044ADF8040047
:10198000888CADF80200A9F101010844ADF8060009
:101990006A465146304601F0F7FB2168BDF8020067
:1019A00088845146304601F0EFF8064430780A2822
:1019B0001CD00D281AD0BDF80000216828444884A6
:1019C000307818B1761C30780028BBD12068818C23
:1019D00039448184818D21F003018185BDE8FC8734
:1019E00005EBD5704010C2E72846C0E7206890F8A4
:1019F0002C1001F0030101290BD0022909D0018C20
:101A0000418431780A29DBD1828C02EB090181847F
:101A1000D6E7A0F82280F4E734000020024B1B68D0
:101A200059849A84FFF77ABF3400002047F6FF7389
:101A3000AFF300802DE9FC411F46904606000D469D
:101A40004FF0000416D065B1084605F059FC0400BB
:101A500007D002462946684601F045FF684605F072
:101A60004FFC3B4642462946304601F0E5FB204606
:101A700005F046FCBDE8FC812DE9F04F164C87B01F
:101A80002568DDE91098EC6C2718286DA518461814
:101A9000C418ADF81070ADF81450ADF81260ADF880
:101AA000164004A805F090FD002811D0DFF82CB0F6
:101AB0004FF0010ACDE90098CDE902BA23462A4643
:101AC0003146384607F022FF05F040FD0028F1D1ED
:101AD00007B0BDE8F08F000034000020994F0008E7
:101AE0002DE9FC41104F04463B68D86C4518196D30
:101AF000ADF800500E198418ADF80440ADF802603E
:101B0000ADF80660684605F05FFD08E038682246DB
:101B10003146406E03682846984705F017FD0028B7
:101B2000F4D1BDE8FC810000340000202DE9FC4127
:101B30001C4C2468E66C94F818C03718206DACF182
:101B4000010C4518C418A7EB0C001644ADF80000B2
:101B500006EB0C00ADF80400A5EB0C00ADF802009C
:101B600004EB0C00ADF80600684605F02DFD15E00D
:101B700032462946384603F00FFA324621463846A7
:101B800003F00AFA621E691C384603F065FA621E09
:101B9000691C304603F060FA05F0D8FC0028E7D154
:101BA000BDE8FC81340000207CB50E4B1B68DC6C6A
:101BB0002618186DADF8006045188418ADF804605B
:101BC000ADF80250ADF80640684605F0FDFC06E0B1
:101BD00022462946304603F03FFA05F0B7FC0028BC
:101BE000F6D17CBD3400002010B5002400E00124B3
:101BF00000F004F80028FAD1204610BD094810B5BD
:101C00000068002410B1804700B1012404F020FED8
:101C100000B101240448006810B1804700B10124DC
:101C2000204610BD58000020540000202DE9FC4142
:101C30000F4C2568EC6C2718286DA5184618C41899
:101C4000ADF80070ADF80450ADF80260ADF8064094
:101C5000684605F0B9FC07E023462A463146384677
:101C600003F024FA05F072FC0028F5D1BDE8FC81F0
:101C70003400002008B50B46002805D0009281886A
:101C80008268C08800F001F808BD10B50828029CE1
:101C900030D008DC04FB01F401280AD0022813D05C
:101CA000042804D11CE0102828D020282CD00020A3
:101CB00010BD04EBD30003F00701105CC1F1070174
:101CC000C84000F0010010BD04EB93000621105C39
:101CD00001EA4301C1F10601C84000F0030010BD54
:101CE00004EB5300D907105C02D000F00F0010BDC8
:101CF000000910BD04FB0130105C10BD481004FB4E
:101D0000003032F8100010BD881004FB003052F88B
:101D1000200010BD034951F82000C1688A6A0821DB
:101D2000104700004C00002010B503F0EFF9BDE8AB
:101D3000104003F095BA000002490968C9694A6871
:101D40000021104734000020024A1268D26952680C
:101D50001047000034000020002801D004F0BCBD72
:101D6000704710B503F0DAF9BDE8104003F078BA17
:101D70000021022802D2024951F82010084670477B
:101D80007801002002480068C069407E704700006A
:101D90003400002070B514460D4603F0F3F9002816
:101DA00002D000202860206070BD01F059BD10B540
:101DB000044601F047FD01462046BDE8104001F011
:101DC000FBBC01F007B800000A490020096891F83F
:101DD0002C2002F00C02042A07D0082A01D00C2A79
:101DE00002D1C869007E40087047C869007E401E65
:101DF0007047000034000020024951F820000069BB
:101E0000006870474C000020024951F8200000692A
:101E1000406870474C00002070B50D4608F08AFEFF
:101E20000446284608F08EFE204370BD2DE9F0419F
:101E30001948016821F001010160184801258560F9
:101E40001749016000681749884200D0FEE701F099
:101E5000CDF8154E2E20307000F0C2FF134808F068
:101E6000FBFE0AF033FF074603F0B4F910B103F0AC
:101E7000C5F938B903F0CBF9044603F0B4F92146AB
:101E800003F0A2FB0021084600F05AFD04F07AFF9F
:101E900075703846BDE8F081002000E00030024057
:101EA000C2A507F4CDB5E8B5280000204C84002079
:101EB0002DE9FC4107461C4615460E46012000F060
:101EC00029FD804611480068C16C006D0F4406442E
:101ED0000D440444ADF80070ADF80450ADF8026054
:101EE000ADF80640684605F06FFB07E023462A463A
:101EF0003146384603F0DAF805F028FB0028F5D122
:101F0000404600F007FDBDE8FC81000034000020E1
:101F10001CB520B90C480068006E002812D0FFF7ED
:101F2000C7FA009044696846FFF70CFB002C09D003
:101F30002046FFF7BDFA019081688968884701A8AB
:101F4000FFF700FB1CBD00003400002001490A46D9
:101F500000F002B801F0FFFF2DE9F04387B015460D
:101F60000C465FEA000842D0002000F0D3FC814616
:101F700020480068066E4046FFF79AFA0090006815
:101F8000806900F0A5FC074640F6FF70C44204D10A
:101F90000098B0F90440B0F906500098611E02891B
:101FA000ADF804401144ADF808104189681E08449A
:101FB000ADF80650ADF80A0004F0AAFA6846FFF73B
:101FC000C1FA01A805F000FB06E02A46214640467A
:101FD00000F04EFB05F0BAFA0028F6D1384600F0C2
:101FE00077FC304600F066F9484600F093FC07B0F5
:101FF000BDE8F083340000202DE9FE4F83461A48E7
:102000008A461A4900680C9E9846407C91460027F3
:1020100051F82040E1680968042903D02468002CA5
:10202000F8D100E01CB9FFF73BFC041E19D0E068B2
:102030000121C26A20469047050011D02469A0689A
:102040008047401C02D10A4C46F001060096CDE9BB
:10205000015443464A465146584600F0AFF90746F8
:102060003846BDE8FE8F0000340000204C00002000
:1020700078E2000838B5040018D00D480068006EFA
:10208000A04201D100F01AFC2046FFF711FA00909F
:10209000406908B100F06FFE00980068FFF7A2FBEE
:1020A0006846FFF74FFA2046FFF73EF938BD0000BB
:1020B000340000202DE9FF4FDFF83891074683B048
:1020C000D9F800009A468B46447C4B4800570128BB
:1020D000204606DD03F084F80546204603F094F818
:1020E00005E003F065F80546204603F067F804466E
:1020F0001FB302A901A8FFF758FEB7F90000002896
:1021000000DA0020B7F902608046002E00DA0026CF
:1021100001984119B7F90400491E08F060FF05460F
:1021200002980119B7F90600491E08F058FFA5EBFF
:102130000802841B521C641C03E04FF00008464652
:102140002A46BAF1000F01D1C4F1000A002A4FDD7E
:10215000002C4DDD10980090534631464046FFF765
:102160004BFF5FEA000A10D000F06AF80746A04271
:1021700006D0D9F80000806C10B1322105F0BEFD08
:10218000504600F097F8002521E059460598884709
:10219000012007B0BDE8F08F611BB94202DA50465A
:1021A00000F072F83DB172194146504600F0A4F8B3
:1021B0005046FFF7ADFE5946059888470F4801681D
:1021C00009B1002088475046FFF7C0FE3D44A542B4
:1021D000E2DB5046FFF74EFF002000F06BF8A7420D
:1021E00006D0D9F80000806C10B1332105F086FDCF
:1021F0000020CEE7340000206C000020A001002069
:1022000038B5002460B1FFF753F900900068006909
:102210008068804703F0B0FB04466846FFF792F9F8
:10222000204638BD38B5002808D0FFF741F900F145
:10223000180400906846FFF785F9204638BD000075
:1022400038B5002418B907480068006E38B1FFF7A8
:102250002FF90090B0F90A406846FFF773F920465D
:1022600038BD00003400002070B505460024284623
:1022700006F0E4F8641C18B1BDE8704000F068B8DE
:10228000052CF4DB70BD000038B50C4620B90848B9
:102290000068006E00280AD0FFF70AF90090B0F934
:1022A0000A10A14200DD44816846FFF74BF938BDB2
:1022B00034000020F8B50F4E05003068046E16D0CB
:1022C0000CB100F0FBFA04F011FA2846FFF7F0F821
:1022D000009031680D660068FFF786FA6846FFF7E0
:1022E00031F903F0D5F903F04FF92046F8BD00F0BD
:1022F000E5FAFAE7340000207CB515460C4620B913
:1023000012480068006E00281FD0FFF7D1F82DB2E8
:102310000090C58024B2848003F036F900984069AB
:1023200080B1FFF7C5F8009A0190B2F908108180DA
:10233000B2F90A20C28011B10AB10480458001A817
:10234000FFF700F96846FFF7FDF87CBD3400002078
:1023500001490A4600F002B801F0FFFF7FB51546BB
:102360000C46060028D0FFF7A3F840F6FF71019055
:10237000CC4203D1B0F90440B0F906500289611E85
:102380001144ADF80840ADF80C104189681E0844AE
:10239000ADF80E00ADF80A5001A8FFF7D3F802A877
:1023A00005F012F906E02A462146304600F048F9C9
:1023B00005F0CCF80028F6D17FBD00002DE9FF4FD5
:1023C000DFF8E8B083B01C46DBF80010DDE91060F0
:1023D00092464FF000084B7C42461299FFF7C6F92F
:1023E000050060D028698068804703F0C5FA8146FF
:1023F0000AFB09F1C91DCF08FFF790F8F10705D1D5
:10240000C11700EB9170801000EB4000002C09DC3C
:102410001FB11838B0FBF7F000E000206442A04282
:1024200000DC0446F00707D10090DDE903012346F4
:10243000524600F029FC8046002C03DC2846FFF7BA
:10244000D1F930E004FB07F01830F10702D0FEF7B5
:102450004BFF01E0FEF74DFF06001CD0FFF728F808
:1024600001900560039981800499C180A0F808A0BB
:102470004481C0F81480C0E9037901A8FFF762F82D
:102480001298AE602861DBF80000407CA8613046FD
:1024900007B0BDE8F08F2846FFF7A4F9B8F10000B7
:1024A00001D0FEF741FF0020F2E7000034000020D9
:1024B0002DE9F74F8EB0144689460E98FEF7F8FFC7
:1024C0000990B0F908B0B0F90A6000680069406886
:1024D0000C9009A8FFF736F8564D574F2868407CF6
:1024E00057F82000C1688A6A082190470790182889
:1024F00001D3202007902868407C57F8200000690D
:10250000069003C80B904D48814201D0012000E0A5
:1025100000200A90002000F064FC00287DD128688B
:1025200009EB0B01B0F90C20891A491E002902DDC4
:10253000ABEB010500E05D46B0F90810494505DD4B
:10254000A1EB090189446D1A089101E0002108916D
:10255000002D6BDDB0F90E20A119891A491E002942
:1025600002DDA6EB010800E0B046B0F90A00A04287
:1025700004DD061B3444A8EB060800E00026B8F191
:10258000000F53DD089801900DA95F46DDF830A0DB
:102590000E980091FFF746FE774300EB8701019804
:1025A0002B4601EB800200994846CDE900A1214667
:1025B00000F0E4FE0090002838D00A98E8B1DDE988
:1025C00006322946009800F00BFDB0B90698009F2E
:1025D000DA46D0F810C0BCF1000F05D004235A46EB
:1025E00039463846E04708E00B993868884701C704
:1025F000AAF101005FEA000AF6D100990020079ACB
:10260000CDE90301059001200090CDE901022146AA
:102610000346641C2A46484600E007E002F0BAFB85
:10262000A8F10100761C5FEA0008ABD111B0BDE84B
:10263000F08F0000340000204C000020AB52000856
:10264000F8B515460E460746FEF732FF00900068C3
:102650001621C068426A0020904704466846FEF78B
:1026600071FF002C03D02A4631463846A047F8BDFA
:10267000F8B516460F46050012D0FEF719FF009078
:1026800044696846FEF75EFF2846FFF7B9FD03463A
:10269000082800DD2CB132463946284609F080FE74
:1026A000F8BD3246394628460AF01AF8F8BD10B58A
:1026B000002821D009B30AB3B1F90040B2F90030C3
:1026C0009C4200DA23460380B1F90240B2F902309D
:1026D0009C4200DA23464380B1F90440B2F9043049
:1026E0009C4200DD23468380B1F90610B2F9062032
:1026F000914200DC1146C18010BD11460A6802609B
:102700004968416010BD00280BD003880B4403804A
:10271000838819448180418811444180C1881144D3
:10272000C180704770B50E4D0446D5E9000188425E
:1027300009D10C49884201D13C3000E00C3807C86F
:1027400084E8070006E090E80E0084E80E0008F038
:102750000FFA2860207A002800D0012070BD000008
:102760006C010020388500200448D0E90010814227
:1027700001D1012070470020704700006C0100204B
:10278000054A10B50349116009F01AFDBDE8104073
:1027900000F00EB9F56900085C00002070B5094C26
:1027A0000020D4E900218A420AD0D2E9005610461E
:1027B00008F0E8F920603146284604F0F3FB0120D8
:1027C00070BD00005C01002010B502F0FBFC074961
:1027D0000968884208DD02F009FD05490968884258
:1027E00002DD044800F068F910BD00001000002070
:1027F0000C000020740300202DE9FC41154DDDE99B
:1028000008742D68B5F90860864200DD3046B5F9D8
:102810000C60964200DA3246824219DBB5F90A6052
:102820008E4200DD3146B5F90E509D4200DA2B464E
:102830008B420DDB00E02C46E5682D6825B1042DA8
:1028400002D02568002DF6D1CDE9007402F086FD96
:10285000BDE8FC8134000020B0F90220B1F9063057
:102860009A4213DCB1F90220B0F906309A420DDC2D
:10287000B0F90020B1F904309A4207DCB1F9001038
:10288000B0F90400814201DC01207047002070474C
:102890000146024870220068FDF792BC3400002017
:1028A000002801D009F074B9704700000249702275
:1028B0000968FDF785BC00003400002010B502F067
:1028C00019FE02F0E5FEBDE8104003F021BE000055
:1028D00070B5094D0446022C2868467C09D2204672
:1028E000FEF7DEFF28B128684474FFF7E7FF0348CE
:1028F0000460304670BD000034000020D400002089
:1029000002F018BE02F04EBE014988607047000018
:102910002800002002F05EBE03490968CA6900B1C0
:10292000C8611046704700003400002002F06EBEFF
:10293000024909688A7E8876104670473400002074
:10294000094A30B41080094A1180094A1268537C40
:10295000084A52F82330DA68146A0A46A446014647
:1029600030BC18466047000074000020760000204C
:10297000340000204C000020024909680A7E0876D5
:10298000104670473400002003490968B1F92C2033
:10299000888510467047000034000020034909680C
:1029A000B1F92A2048851046704700003400002005
:1029B00002480068002800D00047704780010020CE
:1029C00002498A6802B98860FFF7F2BF5C01002003
:1029D00010B5040009D008F039FE204609F09AFC31
:1029E0002046BDE81040FEF79FBC10BD38B50C4630
:1029F00060B1FEF75DFD00908089204201D0012486
:102A000000E000246846FEF79DFD00E0012420461A
:102A100038BD38B5040012D0FEF74AFD0090FFF72C
:102A2000D0F9014600988269114441616846FEF779
:102A300089FD204609F06EFC204608F05BFA38BD9F
:102A400038B50C46002806D0FEF732FD00908461B0
:102A50006846FEF777FD38BD38B50546002028608A
:102A60000648046844B12046FEF722FD0090006944
:102A700028606846FEF766FD204638BD2402002027
:102A800038B504004FF000000D46086011D0204614
:102A9000FEF70EFD0090846844B16846FEF752FDD3
:102AA0002046FEF705FD0090006928606846FEF7A5
:102AB00049FD204638BD00003EB504460C220E49B3
:102AC000FDF7B7FB002813D00B4894E80E0080E810
:102AD0000E000A48026862B194E80B008DE80B0012
:102AE000684601A99047002802D16846FFF748FED2
:102AF0003EBD2046FAE70000BC840020780000209C
:102B0000014A1268D268104738000020014909685C
:102B100009680847380000200149096849680847E2
:102B200038000020014909688968084738000020FA
:102B30002DE9F041084E04460568306801682846D2
:102B400088470746306841682846884728442060FF
:102B50003846BDE8F0810000380000202DE9F04142
:102B600000250E4680462C46064F06E0396808EBE5
:102B700004004968884704446D1CA642F6DC2846D8
:102B8000BDE8F081380000202DE9F0410C460646F2
:102B90000025064F05E038684168304688470644FE
:102BA0000544641EF7D22846BDE8F08138000020B5
:102BB0002DE9F0411E46069C1746884605463A46D2
:102BC000A8687F1C3346D0F804C041462846E04739
:102BD000641EF4D1BDE8F08170B5B0F90040091B66
:102BE000B0F904408C422CDD00F11404B0F902501D
:102BF0000069521B02FB0040CA1800EBE104521EA0
:102C0000D010B0EBE10501F007034FF0FF0102F037
:102C1000070221FA03F0C2F1070201FA02F1CEB273
:102C200021780FD001436D1E04F8011B002D05DD36
:102C3000FF2229462046FDF7E3FA2C442078304352
:102C4000207070BD30400143217070BD10B5B0F9E7
:102C50000030B0F90240C91A00F114030069121BD8
:102C600002FB003000EBE10001F007030278802155
:102C7000D9400A43027010BDB0F9061002695143F1
:102C80001430FDF7C4BA00002DE9F843804602F184
:102C90000F000011470003FB07F01C46154689464C
:102CA0001430FEF726FB060013D0FEF701FC00905F
:102CB000A0F80080A0F802908580C4800649816059
:102CC0000121818107616846FEF73CFC3046BDE882
:102CD000F8830020FBE7000004EC000870B5B0F9B1
:102CE0000660B0F904400B6800F1140596421BDD44
:102CF0000069A34202FB005000EBE30214DA641EF9
:102D0000E010A0EBE30512F8010B03F00704A0406C
:102D1000C4B206E045B1083312F8014B23F00703B3
:102D20006D1E002CF6D004E0002070BD6006040E7D
:102D30005B1C2006FAD5FF2C07D0184602E064067B
:102D4000240E401C6606FAD400E0D81DC443640774
:102D500005D006E012F8014BFF2C09D108306D1E9A
:102D6000F8D5C01A401C0B6070BD6206140E401CE2
:102D70002206FAD4F5E738B50546FEF799FB009030
:102D80008189491E0CB284816846FEF7DBFB002C6A
:102D900002D12846FEF7C8FA38BD000010B54FF43E
:102DA00000410348FEF7B8FA0248FFF7ADFD10BD39
:102DB00080030020E0D60008044A1268111800BF02
:102DC000024A12688A1A002AFADC704714000020AE
:102DD00070470000014800687047000014000020A0
:102DE00070470EB508B102AA00E00022002301A935
:102DF000684600F07BFC0EBD074910B50C7818B191
:102E000001200870801E03E0002008706FF07F40F2
:102E100001F0AAFF204610BD6E0000202DE9F04110
:102E2000984616460C4688B3FEF7C1FF074608F0E1
:102E30000300012825D0022817D0B4F9005000BFA4
:102E4000FEF7A0FF014608F00C0004282BD00C2848
:102E50001DD0B4F9020035807080EA19521E084472
:102E6000B280401EF080BDE8F081B4F90400B4F9EE
:102E70000010401AC01B401C00EBD07001EB600535
:102E8000DEE7B4F90400C51B6D1CD9E710E0B4F906
:102E90000600B4F90220801A401A401C00EBD070E2
:102EA00002EB6000D7E7B4F90600401A401CD2E7F5
:102EB0002068306060687060D5E7000010B5082AAF
:102EC0000EDC0346012A18D0022A56D0042A76D0F6
:102ED00010F8042B03F8012B491EF9D1012010BD75
:102EE000102A08DC4FEA000230F8043B22F8023BCB
:102EF000491EF9D1F2E7002010BD10F8042BD207CB
:102F0000120E491E34D010F8044B491E04F001047F
:102F100042EA84122CD010F8044B491E04F001043C
:102F200042EA441224D010F8044B491E04F0010474
:102F300042EA04121CD010F8044B491E04F00104AC
:102F400042EAC40214D010F8044B491E04F00104F4
:102F500042EA84020CD010F8044B491E04F001042C
:102F600042EA440204D010F8044B04F00104224366
:102F700003F8012B0029C0D1B0E710F8042B920709
:102F8000120E491E15D010F8044B491E04F003041C
:102F900042EA04120DD010F8044B491E04F0030459
:102FA00042EA840205D010F8044B04F003042243E3
:102FB000491E03F8012B0029DFD18FE7FFE710F846
:102FC000042B1207120E491E05D010F8044B04F012
:102FD0000F042243491E03F8012B0029EFD17DE79E
:102FE00038B50024009400F01BF838BD0A4810B52D
:102FF000816900290ED101218161FFF7CFFE02F026
:1030000059FB054905481C310860BDE810400846D9
:1030100000F06CBD10BD000028000020F1B00008D9
:103020002DE9F0410D460699044601B901461F6895
:10303000082A09DC0E46012A1AD0022A5BD0042A8B
:103040007DD0082A13D18DE0102A07DCD3F810C0F8
:103050000E46BCF1000F04D0022389E00020BDE839
:10306000F08101CCB84726F8020B6D1EF9D189E03A
:1030700001CCB847C0074FEA10686D1E36D001CCAE
:10308000B84748EA801000F0FF086D1E2ED001CC32
:10309000B84748EA401000F0FF086D1E26D001CC6A
:1030A000B84748EA001000F0FF086D1E1ED001CCA2
:1030B000B84748EAC00000F0FF086D1E16D001CCEA
:1030C000B84748EA800000F0FF086D1E0ED001CC22
:1030D000B84748EA400000F0FF086D1E06D001CC5A
:1030E000B84740EA080000F0FF086D1E06F8018BA3
:1030F000002DBDD146E001CCB84780074FEA1068EB
:103100006D1E16D001CCB84748EA001000F0FF0849
:103110006D1E0ED001CCB84748EA800000F0FF08D1
:103120006D1E06D001CCB84740EA080000F0FF0849
:103130006D1E06F8018B002DDDD123E0FFE701CCE9
:10314000B84700074FEA10686D1E06D001CCB8479B
:1031500040EA080000F0FF086D1E06F8018B002D04
:10316000EDD10FE0D3F810C0BCF1000F04D0012363
:103170002A462046E04705E001CCB84706F8010B97
:103180006D1EF9D101206AE77CB5064628480D4638
:10319000006868B1002004F017FA06E06A46294684
:1031A000304605F043FA04F0D1F90028F6D17CBD91
:1031B000106800901F4C506801902268BDF8000014
:1031C00032F84C1F0844ADF80000BDF802009188A9
:1031D0000844ADF80200BDF8040011880844ADF8B9
:1031E0000400BDF8060091880844ADF80600684662
:1031F00004F0EAF90EE000BF2068BDF800106A464E
:103200004184BDF8021081842946304605F00EFA4B
:1032100004F09CF90028EFD1206830F8221F428D7D
:10322000891A01804188C28D891A41807CBD0000C5
:1032300070000020340000202DE9FF4F85B09A4631
:1032400090460D46FEF79EFD4FF00009DDF814B0E4
:1032500006464C4625B1286800906868019002E057
:103260006846FEF779FD18F00C0F02D0554600278E
:1032700013E0BDF902402DE029467F1C059800F0BF
:10328000C5FA01466D1A0598FFF77EFC05990844BA
:10329000059005A800F0FEFA08B9002DECD108F061
:1032A0000C00042804D0082802D00C2812D105E014
:1032B000BDF9060007FB1604641C0BE0BDF906000F
:1032C000BDF90210401A07FB1600401C00EBD0703D
:1032D00001EB60045546CDF814B043E0294605984B
:1032E00000F094FA07460146ED1B059800F064FAD9
:1032F00018F003010ED0012939D002290DD1BDF9F2
:103300000410BDF90020891A091A01EBD17102EBF2
:10331000610101E0BDF900108946174A401E48448A
:1033200012683946A2F822909484ADF80C00A019D6
:10333000401EADF80890ADF80E00ADF80A4002AAA4
:103340000598FFF721FF39460598FFF71DFC059901
:1033500008440590FEF716FD044405A800F09AFA0B
:10336000002801D1002DB9D109B0BDE8F08FBDF919
:103370000410091A491CCFE7340000202DE9FF4F43
:103380008DB00020DDF86CA0164600901D46044666
:103390000246CAF8000008AB03A902A800F0A6F98B
:1033A00018B1002011B0BDE8F08F0898854200DD0B
:1033B0000546614F0B9561493868407C51F82010F3
:1033C000049109690691FEF7A5FC05903868407CD8
:1033D000FEF71AFD5A498146884204D05949894569
:1033E00001D0012000E000200A9001CE1A99884700
:1033F0008346000E079077D0009870BB0D9800EBC5
:1034000004084D480068B0F90800404503DDA0EB12
:103410000807804600E000270298049900EB84002A
:1034200000EB8700CDE900010B990D984218099235
:103430000E9B40461946521EFFF7DEF90120009010
:10344000059818280ADA0298DDE9052300EB8400C4
:1034500000EB8700E91B00F0A7F812E00A9880B1A2
:10346000029800EB840000EB87070998A0EB08089E
:1034700049463868884701C7A8F101005FEA00089B
:10348000F6D13148C06980B3DDE9020700EB840062
:1034900007EB8402CDE902022B4C361F3046E4696B
:1034A0002B460299A047FF213068B1EB106F02D183
:1034B0000298006804E0029A1268B1EB126F01D121
:1034C000039A1060029806F10406001D029003980A
:1034D000001D03906D1EE7D10397DAF8000040F05D
:1034E0000101CAF8001020E021E0FFE70798FF285B
:1034F00011D0C0F1FF02029850F82410584600F095
:103500008DFA039941F82400DAF8000040F0010137
:10351000CAF8001005E00298039950F8240041F819
:103520002400641C6D1E7FF460AF03983AE7039992
:1035300041F824B0E8E70000340000204C000020EF
:10354000AB520008A9520008F80100202DE9F04F05
:10355000144C87B02568DDE91298EC6CDDE910BAEF
:103560002718286DA5184618C418ADF81070ADF8C6
:103570001450ADF81260ADF8164004A804F024F819
:103580000BE0CDE90298CDE900BA23462A46314640
:10359000384606F0B9FA03F0D9FF0028F1D107B098
:1035A000BDE8F08F340000202DE9F05F0C1E16DD21
:1035B0005E68014600EB8405082A12DC611E012AC0
:1035C00026D0022A47D0042A6AD0082A07D1071930
:1035D00017F8010DB04745F8040D641EF8D1BDE899
:1035E000F09F102AFBDC5F693FB12246BC46BDE874
:1035F000F04F02235DF804EB604701EB440700BF86
:1036000037F8020DB04745F8040D641EF8D1E6E71F
:1036100000EBE10001F0070710F801A981468020C6
:1036200020FA07F8B5F104050AEA0800C7F1070116
:10363000C840B04745F804093FB14FEA48604FEA37
:1036400010687F1E641EEFD1C9E719F801A907278A
:103650004FF00108F6E700EBA10001F0030710F8B6
:1036600001A981467900C02020FA01F84FF0060B2D
:10367000B5F104050AEA0800ABEB4701C840B047C2
:1036800045F804093FB14FEA88604FEA10687F1E91
:10369000641EEFD1A3E7032719F801A9B846F7E79D
:1036A00000EB6100012710F801A9A7438146B9008A
:1036B000F02020FA01F84FF0040B2D1F0AEA080051
:1036C000ABEB8701C840B04745F804093FB14FEA6A
:1036D00008704FEA10687F1E641EEFD17FE719F86B
:1036E00001A901274FF00F08F6E700002DE9F04788
:1036F000224C06461F46A06990468946002540B9DF
:103700000120A06104F120011D480860084600F076
:10371000EDF9606930B91B480068606110B901F0CB
:103720004AFD606107B138604EB1A06830B9606988
:103730008000FDF737FEA06000B901253060B9F1C7
:10374000000F0AD0E06830B960698000FDF72AFEFA
:10375000E06000B90125C9F80000B8F1000F0AD0F7
:10376000206930B960698000FDF71CFE206100B956
:103770000125C8F800002846BDE8F087F8010020C0
:1037800065B100086400002030B4024CA468A4466F
:1037900030BC60473801002013460A461946014BE9
:1037A0005B6818473801002013460A461946014B4A
:1037B0001B6818473801002073B5124A01A9009808
:1037C0001268904700240090C8B10F49002509688D
:1037D000C969496959B10A684AB1019990477CBDE4
:1037E0006846FFF7A5F90546FEF7A6FA04440198D6
:1037F000401E0190F4D5284600F040F804442046CD
:103800007CBD0000200200203400002073B50D466E
:103810000098002490B10A490968C969496959B1F9
:103820004A684AB1294690477CBD6846FFF780F94F
:1038300020B10A2802D0641CAC42F6DB20467CBDD5
:103840003400002031B50024009808B905E0641C5C
:103850006846FFF76DF90028F9D1204638BD000011
:10386000044AB2F9002002600348B0F90000086081
:1038700070470000740000207600002038B5002456
:1038800069460094FEF760FA0099814200DD0C1A47
:10389000204638BD016811F8012B12B10A2A02D066
:1038A00002E001207047016000207047B0F900304D
:1038B000B1F90020934200DA0280B0F90230B1F988
:1038C0000220934200DA4280B0F90430B1F90420BA
:1038D000934200DD8280B0F90620B1F906108A42D9
:1038E00000DDC180704770B5B1F90040B2F9003019
:1038F0009C4200DD23460380B1F90250B2F9024038
:10390000A54200DD2C464480B1F90460B2F90450B0
:10391000AE4200DA35468580B1F90610B2F90620CC
:10392000914200DB1146C1809D4201DBA14201DAD8
:10393000002070BD012070BD014602480068407C37
:1039400000F002B8340000202DE9F8430126894632
:10395000044602285DDA304F7A6802B190472E4D56
:103960005FEA090005F1100532D0012803D0B9F152
:10397000020F4ED118E055F8240088B92046FDF713
:103980008FFF009018B3C0680D21426A68469047C7
:1039900002003ED049460098904755F82400002682
:1039A000401C45F8240034E02046FDF779FF0090E4
:1039B00068B1C0680D21426A68469047040028D06B
:1039C000386800B1804749460098A047002620E0AB
:1039D00055F82400A846012812D12046FDF760FFC3
:1039E000009068B1C0680D21426A684690470500A2
:1039F00006D0386800B1804749460098A84700269D
:103A000058F8241009B1012200E00022891A48F870
:103A100024103046BDE8F8834401002070B5FF2330
:103A2000B3EB116F2CD0C3B213FB02F500F47F444B
:103A300000F47F0354435343000E10FB02F6C2F11F
:103A4000FF00CAB212FB005201F47F4505FB00449F
:103A500001F47F0505FB0033090E11FB0065C2F37D
:103A600007204FF47F024FF47F4102EA132201EA5C
:103A700014214FF07F43084303EA054310431843E2
:103A800070BD2DE9F04F0646DDE90CB915460C4630
:103A900000208046584519D20B9F4FF0FF0A01CEF7
:103AA00008CCAAEB106202FB09F2B2FBFAF1CAB22F
:103AB0001946FFF7B3FF20F07F4001C57F1EEED10E
:103AC000099804EB800408F10100E2E7BDE8F08FFB
:103AD0000B88134403808B889B1A83804B88134484
:103AE0004380C988891AC1807047000002494A6929
:103AF0004260486170470000280000202DE9F8432B
:103B00000768064688460025384600F091F840B31D
:103B1000404600F09DF8441C3846FDF7BBFC84424B
:103B20000CD1F4B13846FDF7C3FC22464146009063
:103B3000FCF746FB6846FDF705FD11E02046FDF762
:103B4000D3FB04000DD0FDF7B3FC41460090FCF719
:103B50007DFB6846FDF7F6FC3046FDF70DFC346052
:103B600001252846BDE8F88310B502E000F8011BE6
:103B7000521E0AB18307F9D1930818D001EB014412
:103B800002F0030204EB042406E010C01B1F10C067
:103B900040F8084B40F8044C042BF6DA01E010C062
:103BA0005B1E002BFBD102E000F8011B521E002A15
:103BB000FAD110BD10B5830702D520F8021B521EA2
:103BC000530811D001EB0144042B09DB10C01B1F6B
:103BD00010C0042B40F8084B40F8044CF6DA01E022
:103BE00010C05B1E002BFBD1D20700D0018010BD9E
:103BF000024600204FF080414318934201D8D21A68
:103C0000581840088908F7D17047000000B907A08C
:103C100021B906A102E03AB1401C491C02780B7898
:103C20009A42F8D001207047002070470000000041
:103C300038B50D46012448B1FDF73AFC29460090FD
:103C4000FFF7E4FF04466846FDF77CFC204638BDDC
:103C50004FF0FF3128B100BF10F8012B491C002A9A
:103C6000FAD108467047000010B502210F4800F055
:103C700075F960B9012211030D4800F077F90120B0
:103C80000C490870084600780B4908720CE00022C5
:103C90004FF48051064800F069F90020054908708A
:103CA000084600780449087210BD00000000024078
:103CB000000C0240080000207403002031B50024ED
:103CC00000F05AF9044600BF00F056F9001B0099B5
:103CD0008842F9D338BD000000B587B01B480068A2
:103CE00008B107B000BD01201849086000BF0020DE
:103CF00001901748006840F0010015490860084627
:103D0000006800F00100019000BF00BF4FF688700E
:103D100002900220039000200490032005900C20C4
:103D2000069002A90B4800F019F84CF2B37002900B
:103D30000220039000200490032005900C200690A0
:103D400002A9054800F00AF800BFCAE700000020F9
:103D50003838024000100240000C0240F8B502461C
:103D60000B460025002400200021DCE0012606FA95
:103D700001F51E6806EA0504AC4273D15E68022EA6
:103D800002D05E68122E13D1CF0802F1200656F839
:103D900027004E07F70E0F26BE40B0434F07FF0E19
:103DA0001E69BE403043CF0802F1200646F82700C6
:103DB00010684F000326BE40B0431E7906F003068C
:103DC0004F00BE40304310605E68012E08D05E6830
:103DD000022E05D05E68112E02D05E68122E13D11D
:103DE00090684F000326BE40B0434F00DE68BE40DF
:103DF00030439060506801268E40B0431E79C6F370
:103E000000168E4030435060D0684F000326BE40FD
:103E1000B0434F009E68BE403043D0605E6806F0FD
:103E20008056B6F1805F7DD100BF00260096404EDF
:103E3000366846F480463E4F3E603E46366806F49D
:103E40008046009600BF00BF3A4E8F0856F8270004
:103E50008E07370F0F26BE40B043374EB24202D115
:103E6000002624E05EE0354EB24201D101261EE07C
:103E7000334EB24201D1022619E0324EB24201D194
:103E8000032614E0304EB24201D104260FE02F4E3B
:103E9000B24201D105260AE02D4EB24201D10626DA
:103EA00005E02C4EB24201D1072600E008268F071C
:103EB0003F0FBE4030431F4E8F0846F82700264E66
:103EC0003068A0435E6806F48036B6F5803F00D1C6
:103ED0002043214E3060361D3068A0435E6806F4F2
:103EE0000036B6F5003F00D120431B4E361D306032
:103EF000361D3068A0435E6806F48016B6F5801F54
:103F000000D12043144E08363060361D3068A0437F
:103F10005E6806F40016B6F5001F00D120430E4E71
:103F20000C363060491C1029FFF420AFF8BD0000AA
:103F300044380240083801400000024000040240BA
:103F400000080240000C0240001002400014024031
:103F500000180240001C0240003C01400246136968
:103F60000B400BB1012000E0002070470AB18161D5
:103F700001E00B048361704701480068704700004E
:103F80001C00002002480068401C0149086070477E
:103F90001C00002010B50D48006840F400700B496B
:103FA00008600846006840F48060086008460068C1
:103FB00040F480700860032000F088F8002000F0D2
:103FC00007F800F019F8002010BD0000003C024086
:103FD00070B50446074800684FF47A71B0FBF1F5FC
:103FE000284600F0A1FE00222146501E00F02FF8C6
:103FF000002070BD1800002010B5032000F066F806
:10400000002211466FF00B0000F021F8002211464B
:104010006FF00A0000F01BF8002211466FF0090053
:1040200000F015F800221146501F00F010F8002291
:104030001146101F00F00BF800221146901E00F0F0
:1040400006F800221146501E00F001F810BD2DE9BF
:10405000F05F80460D461646002701F0C1FE074678
:1040600039462A46334601F00700C0F1070ABAF183
:10407000040F02D94FF0040A01E0C0F1070AD1464B
:1040800000F1040ABAF1070F02D24FF0000A01E072
:10409000A0F1030AD4464FF0010A0AFA09FAAAF17C
:1040A000010A0AEA020A0AFA0CFA4FF0010B0BFAAB
:1040B0000CFBABF1010B0BEA030B4AEA0B042146A4
:1040C000404601F095FEBDE8F09F000000BF00F003
:1040D0000702064B19684FF6FF031940044B0B43C8
:1040E00043EA0221014B196000BF70470CED00E06C
:1040F0000000FA0570B504460D4600266D480068BC
:1041000000F00F00A84209D26A490D700846006805
:1041100000F00F00A84201D0012070BD207800F00F
:104120000200022807D16448006820F0F000A1686E
:10413000084361490860207800F00100002877D02A
:104140006068012807D15C4808380068C0F3404027
:10415000B8B90120E1E76068022802D0606803284E
:1041600007D1554808380068C0F3406048B90120BD
:10417000D3E7514808380068C0F3400008B901206F
:10418000CBE74D48006820F00300616808434A49C6
:104190000860FFF7F1FE06466068012810D108E0CC
:1041A000FFF7EAFE801B41F28831884201D90320E3
:1041B000B3E74148006800F00C000428F0D137E074
:1041C0006068022810D108E0FFF7D6FE801B41F29C
:1041D0008831884201D903209FE73748006800F002
:1041E0000C000828F0D123E06068032810D108E013
:1041F000FFF7C2FE801B41F28831884201D90320BB
:104200008BE72D48006800F00C000C28F0D10FE07F
:1042100008E0FFF7B1FE801B41F28831884201D9E6
:1042200003207AE72448006800F00C000028F0D151
:104230002048006800F00F00A84209D91D490D7000
:104240000846006800F00F00A84201D0012064E792
:10425000207800F00400042807D11748006820F4F3
:10426000E050E168084314490860207800F0080035
:10427000082808D11048006820F46040216940EA0D
:10428000C1000D49086000F023F80B49096801F0EE
:10429000F001F02292FAA2F2B2FA82F2D140074A79
:1042A000515CC840064908600020FFF791FE0020DD
:1042B00033E70000003C02400838024048CF0008C5
:1042C0001800002001480068704700001800002016
:1042D00070B50021002200230020274C246804F040
:1042E0000C0424B1042C04D0082C41D103E0234851
:1042F00040E023483EE0204C241F246804F03F01A6
:104300001D4C241F246804F4800484B11C4CB4FBAD
:10431000F1F5194C241F246847F6C076344096FA0C
:10432000A6F6B6FA86F6F44005FB04F20FE0134C4D
:10433000B4FBF1F5104C241F246847F6C0763440D6
:1043400096FAA6F6B6FA86F6F44005FB04F20A4C95
:10435000241F246804F440344FF4403595FAA5F541
:10436000B5FA85F5EC40641C6300B2FBF3F001E0A4
:10437000024800BF00BF70BD083802400024F400AE
:1043800000127A0038B504460025207800F00100BC
:10439000002874D0F748006800F00C0004280DD005
:1043A000F448006800F00C00082813D1F148001F01
:1043B000006800F48000B0F5800F0BD1ED4808389C
:1043C0000068C0F34040002859D06068002856D1EA
:1043D000012038BD00BF6068B0F5803F08D1E548D6
:1043E0000838006840F48030E249083908601EE06F
:1043F0006068B0F5A02F0DD1DE480838006840F4A1
:104400008020DC49083908600846006840F48030A4
:1044100008600CE0D7480838006820F48030D5499F
:10442000083908600846006820F48020086000BF52
:10443000606890B1FFF7A0FD054606E0FFF79CFD20
:10444000401B642801D90320C3E7CA480838006824
:10445000C0F340400028F1D011E0FFF78DFD054684
:1044600006E0FFF789FD401B642801D90320B0E76F
:10447000C04808380068C0F340400028F1D12078D7
:1044800000F00200022869D1BA48006800F00C0070
:1044900058B1B848006800F00C00082821D1B54890
:1044A000001F006800F48000D8B9B24808380068DE
:1044B000C0F3400020B1E068012801D0012088E766
:1044C000AC480838006820F0F800F82292FAA2F20E
:1044D000B2FA82F2216991400843A649083908607E
:1044E0003CE0E06828B30120A3490860FFF744FDE1
:1044F000054606E0FFF740FD401B022801D90320D6
:1045000067E79C4808380068C0F340000028F1D0F5
:1045100098480838006820F0F800F82292FAA2F2D1
:10452000B2FA82F221699140084392490839086041
:1045300014E0002090490860FFF71EFD054606E0E4
:10454000FFF71AFD401B022801D9032041E78948E3
:1045500008380068C0F340000028F1D1207800F04E
:10456000080008282CD16069A8B10120834908609F
:10457000FFF702FD054606E0FFF7FEFC401B0228A0
:1045800001D9032025E77B486C300068C0F3400068
:104590000028F1D014E0002078490860FFF7ECFC17
:1045A000054606E0FFF7E8FC401B022801D903207E
:1045B0000FE770486C300068C0F340000028F1D16C
:1045C000207800F0040004287FD100BF0020009074
:1045D00068483830006840F08050664938310860DB
:1045E0000846006800F08050009000BF00BF64489B
:1045F000006840F4807062490860FFF7BDFC054622
:1046000006E0FFF7B9FC401B022801D90320E0E6D1
:104610005B48006800F480700028F2D000BFA068FA
:10462000012808D153486830006840F00100514922
:10463000683108601DE0A06805280DD14D4868303C
:10464000006840F004004B49683108600846006883
:1046500040F0010008600CE046486830006820F037
:1046600001004449683108600846006820F00400F1
:10467000086000BFA068A0B1FFF77EFC054608E017
:10468000FFF77AFC401B41F28831884201D90320B0
:104690009FE6384868300068C0F340000028EFD03B
:1046A00013E0FFF769FC054608E0FFF765FC401BD7
:1046B00041F28831884201D903208AE62D486830CA
:1046C0000068C0F340000028EFD1A069F0B329488A
:1046D000006800F00C00082871D0A069022858D1A9
:1046E000002025490866FFF747FC054606E0FFF76E
:1046F00043FC401B022801D903206AE61D48083804
:104700000068C0F340600028F1D1D4E907010843F4
:1047100047F6C07292FAA2F2B2FA82F2616A91404E
:1047200008430122A16AC2EB51014FF4403292FAD0
:10473000A2F2B2FA82F2914008434FF0706292FA0C
:10474000A2F2B2FA82F2E16A914000E039E0084355
:104750000849091F0860012007490866FFF70CFC9B
:1047600005460FE0FFF708FC401B02280AD903208A
:104770002FE600000838024000004742800E474202
:104780000070004010480068C0F340600028E9D085
:1047900017E000200D490866FFF7EEFB054606E02E
:1047A000FFF7EAFB401B022801D9032011E6064867
:1047B0000068C0F340600028F2D102E0FFE701206A
:1047C00007E6002005E600000038024000004742EE
:1047D00010B504460CB9012010BD606A00B900BFD5
:1047E0000021A16294F8510028B9002084F85000FB
:1047F000204600F033F8022084F851002068006859
:1048000020F0400021680860D4E901010843E16814
:1048100008432169084361690843218B01F4007151
:104820000843E1690843216A0843A16A08432168F3
:1048300008600421A06901EA1040616A0843216808
:1048400048602068C06920F400602168C8610020C9
:104850006065012084F851000020BDE710B586B0E6
:1048600004461949206888422CD100BF00200090DE
:104870001648006840F48040144908600846006803
:1048800000F48040009000BF00BF0C200190022087
:10489000029000200390032004900520059001A9B8
:1048A0000B48FFF75BFA4FF4806001900220029002
:1048B00000200390032004900520059001A90548DD
:1048C000FFF74CFA06B010BD0038004040380240F7
:1048D00000080240000402402DE9F84304460D465A
:1048E00017461E464FF00008C14600BF94F850001E
:1048F000012802D10220BDE8F883012084F850008D
:1049000000BFFFF739FB804694F85100012802D020
:104910004FF00209A9E005B117B94FF00109A4E071
:10492000032084F85100002060652563A786E78690
:10493000A063A087E08760642064A068B0F5004FA2
:1049400005D12068006840F4804021680860206834
:10495000006800F04000402805D02068006840F062
:10496000400021680860E068B0F5006F2AD16068F7
:1049700010B1E08E012806D128882168C860AD1CDE
:10498000E08E401EE08619E02068806800F002009A
:10499000022807D128882168C860AD1CE08E401E1F
:1049A000E0860BE03EB1701C40B1FFF7E5FAA0EBEA
:1049B0000800B04202D34FF0030956E0E08E002811
:1049C000E2D129E0606810B1E08E012806D1287894
:1049D000216808736D1CE08E401EE08619E0206897
:1049E000806800F00200022807D128782168087347
:1049F0006D1CE08E401EE0860BE03EB1701C40B1A5
:104A0000FFF7BAFAA0EB0800B04202D34FF0030957
:104A10002BE0E08E0028E2D133460122022120461D
:104A2000CDF8008001F015FA10B14FF003091CE039
:104A300042463146204601F0F8F920B14FF0010915
:104A40002020606511E0A06850B900BF00200090F0
:104A50002068C068009020688068009000BF00BF98
:104A6000606D08B14FF0010900BF012084F85100CA
:104A700000BF002084F8500000BF48463BE72DE906
:104A8000FE4F04460D4616461F46DDF830804FF0B7
:104A9000000A0020029081464FF0010B019000BFF8
:104AA00094F85000012802D10220BDE8FE8F0120B9
:104AB00084F8500000BFFFF75FFA814694F851A0D8
:104AC00060680290BAF1010F0BD00298B0F5827FB6
:104AD00004D1A06810B9BAF1040F02D002200190ED
:104AE000D2E00DB106B117B901200190CCE094F8E5
:104AF0005100012802D1052084F851000020606592
:104B0000A663E787A7872563E786A7862064606496
:104B10002068006800F04000402805D02068006848
:104B200040F0400021680860E068B0F5006F43D1B4
:104B3000606810B1E08E012806D128882168C8601D
:104B4000AD1CE08E401EE0862FE0BBF1000F10D0C0
:104B5000E08E70B12068806800F00200022808D161
:104B600028882168C860AD1CE08E401EE0864FF0AA
:104B7000000BE08F68B12068806800F0010040B150
:104B80002068C0683080B61CE08F401EE0874FF080
:104B9000010B08F1010040B1FFF7EEF9A0EB0900AD
:104BA000404502D3032001906EE0E08E0028CCD176
:104BB000E08F0028C9D142E0606810B1E08E012882
:104BC00006D12878216808736D1CE08E401EE086AF
:104BD0002FE0BBF1000F10D0E08E70B1206880682C
:104BE00000F00200022808D115F8010B21680873B3
:104BF000E08E401EE0864FF0000BE08F68B1206829
:104C0000806800F0010040B12068C06806F8010B20
:104C1000E08F401EE0874FF0010B08F1010040B12A
:104C2000FFF7AAF9A0EB0900404502D30320019049
:104C30002AE0E08E0028CCD1E08F0028C9D143467D
:104C4000012202212046CDF8009001F002F910B1B6
:104C50000320019018E04A464146204601F0E5F85D
:104C600020B101200190202060650DE0A06850B9BE
:104C700000BF002000902068C06800902068806815
:104C8000009000BF00BF00BF012084F8510000BFAA
:104C9000002084F8500000BF019806E770B5044674
:104CA0000E4615460CB9012070BD94F8490028B98C
:104CB000002084F84800204600F01CF804F10801A8
:104CC0002068FBF7BFFF3146A2682068FBF7E8FFCA
:104CD0002946236BD4E90102FBF790FFA168206805
:104CE00050F8210040F00100A268216841F822003C
:104CF0000020D9E710B50446FEF7EEFF10BD0428EA
:104D000008D14FF0E021096941F004014FF0E022A1
:104D1000116107E04FF0E021096921F004014FF033
:104D2000E02211617047704770B504462546681E41
:104D3000B0F1807F01D301200FE0681E4FF0E02129
:104D400048610F214FF0FF3001F052F800204FF082
:104D5000E021886107200861002070BD10B5FFF7D1
:104D6000E2FF10BD00BFFEE702490A680860104676
:104D700070470000C80200200449054A0968497CC0
:104D800052F8211009690968084700003400002022
:104D90004C0000202DE9F04F05468DB07B48DDF832
:104DA00060901A9C00681E4617464FF0000A78B1C2
:104DB0001B9B199ACDF808900593CDE90324DDE9F2
:104DC0001623CDE90023046833463A46284680E09E
:104DD000DDE9160201EB060805EB070C1043A8F10C
:104DE0000108ACF1010C012806D0C9F108000590BA
:104DF000002002910990C6E065480268B2F90A30C5
:104E0000581A002806DD361A002E63DD1946199B54
:104E100000FB0344B2F90E00A8EB0000002802DDFD
:104E2000361A002E56DDB2F90C00ACEB000000285B
:104E300000DD3F1AB2F908300020AB4235DD581BC7
:104E40003F1A4B46B9F1080F26D006DC012B0BD0D8
:104E5000022B11D0042B28D116E0102B1ED0182BBA
:104E60001FD0202B21D11CE020F0070304EBE0042D
:104E70001D4400F0070018E020F0030304EBA00439
:104E80001D4400F0030010E020F0010304EB600477
:104E90001D4400F0010008E0044404E004EB400479
:104EA00001E004EB800405440020002F12DD1B9B71
:104EB000DDF864C0CDE90403CDE90069CDE902C4A1
:104EC000527C34483B4650F82200C26854680A4677
:104ED0002946A0470DB0BDE8F08F17990298084405
:104EE0000C902B49401E00900A68B2F90A308342A8
:104EF00041DCB2F90E10029881423CDB4FF0000B0E
:104F0000D84603950A9434E0BBF1000F05D10A9806
:104F10004FF0080B10F801AB0A900599ABEB090BA9
:104F20003AFA01F00AFA09F101F0FF0A04D118492E
:104F30000968097C890716D415490968C96B0A688C
:104F40000B921B9A0AB152F8200008601699039838
:104F5000009B4218521E029900F0A8F80C490B98C9
:104F60000968C96B08600399169808F1010808449C
:104F70000390B845C8DB0998401C09900C98029032
:104F8000199804440998B042A7DBA3E770000020F9
:104F9000340000204C000020F0B40C46124909688F
:104FA000B1F90A30A3421CDCB1F90E30A34218DB80
:104FB000B1F90830834200DD1846B1F90C30934254
:104FC00000DA1A4682420CDB4B7C084951F8235028
:104FD00013462246E9688E6801462846B446F0BC6E
:104FE0006047F0BC70470000340000204C000020F7
:104FF0000A46174930B40968B1F90A30934225DCF2
:10500000B1F90E30934221DBB1F9083083421DDC47
:10501000B1F90C30834219DB0B7C0E4CDB0709D055
:10502000497C54F82130D968CC690146A44630BC8B
:1050300018466047CB6B497C1B6854F82140E168F7
:105040008D6901462046AC4630BC604730BC704795
:10505000340000204C000020124B30B41B68B3F920
:10506000084084421CDCB3F90C40844218DBB3F9DD
:105070000A408C4200DD2146B3F90E40944200DA2A
:1050800022468A420CDB5C7C074B53F82440E368E1
:10509000DD6813460A4601462046AC4630BC6047F0
:1050A00030BC7047340000204C00002038B5134C51
:1050B0002468B4F90850854200DD2846B4F90C5044
:1050C000954200DA2A46824217DBB4F90A508D4233
:1050D00000DD2946B4F90E509D4200DA2B468B4282
:1050E0000BDB0093647C064B53F82440E3681D6996
:1050F00013460A4601462046A84738BD3400002022
:105100004C000020082105F0A3BB00000248006805
:10511000806B00687047000034000020024800687F
:10512000C06B00687047000034000020024809216D
:105130000068407C05F08CBB34000020092105F09C
:1051400087BB70B500252C462046FCF7A9FB00B1B3
:105150006D1C641C022CF7DB284670BD02480068F9
:10516000407C00F003B800003400002010B5FCF7CC
:1051700097FB002805D0C168CA6ABDE8104002212B
:10518000104710BDF8B515460E460124FCF788FB04
:10519000009058B1C0680421426A684690470300F5
:1051A00004D02A4631460098984700242046F8BD8E
:1051B000032105F04DBB032005F009BC042105F0D7
:1051C00047BB0000024801210068407C05F040BB5D
:1051D0003400002001480068704700007C00002077
:1051E000012105F035BB012005F0F1BB0248022189
:1051F0000068407C05F02CBB34000020014840686A
:10520000704700007C000020022105F021BB022035
:1052100005F0DDBBAFF300802DE9F041002809D097
:10522000876837B10D4E716819B10468B4F5807F95
:1052300002DD0020BDE8F0813068844200DD0446D4
:10524000002507E057F82500FFF796FD716841F843
:1052500025006D1CA542F5DB7068EBE7900100208E
:105260000449054A0968497C52F8211009694968CE
:1052700008470000340000204C00002010B5084A08
:10528000084B00F01F01C0F34514C0F3C420515C6B
:105290001B5D105C01EB032101EB004010BD000021
:1052A00004D7000824D700087047704710B50A4C8F
:1052B000606860B920688000FCF774F8606040B1F5
:1052C00004F10801054808600846FEF70FFC0020BD
:1052D00010BD012010BD00009001002051B1000858
:1052E0002DE9F047FFF72DFF07460024DFF8608027
:1052F0002AE02046FCF7D4FA28B3D8F8000090F84A
:10530000119044742046FFF7FDFE082817DC114871
:10531000114950F824000069884210D02046FFF758
:105320000DFF0646002508E0E8B2FFF799FF0246A8
:10533000E9B2204600F054F96D1CB542F4DBD8F810
:10534000001081F81190641CBC42D2DBBDE8F087EC
:10535000340000204C00002060E200082DE9FF4FDF
:1053600083B01646DDE910408B46C0684769426A43
:105370007AB1012111A8904705000AD00698CDE91D
:10538000000433465A4603991198A84707B0BDE870
:10539000F08F57480068407CFCF7BCFC8246082828
:1053A00001DC012005E0BAF1100F01DC022000E071
:1053B00004208046002596E04046B8F1010F05D054
:1053C000022871D0B8F1040F25D17CE0BAF1090FA1
:1053D00021D2DFE80AF08605213F3F59595959008B
:1053E000039815E001465A461198B847C5F10701E0
:1053F00088404FF67F722178EA40114001436D1CCE
:10540000217004EBE50425F00700054109F10100D6
:105410008146B042E6DD64E0039817E001465A4653
:105420001198B8470621A1EB450188406B004FF663
:105430003F722178DA40114001436D1C217004EB6A
:10544000A50425F00300054109F101008146B042A1
:10545000E4DD46E0039813E001465A461198B84748
:105460000421A1EB850188402178AB000F229A40EE
:105470001140014321702C4485F0010509F1010020
:105480008146B042E8DD2CE0DDF80C9007E00146F3
:105490005A461198B847207009F10109444448461A
:1054A000B145F4DD1DE0FFE7DDF80C9007E00146B3
:1054B0005A461198B847208009F1010944444846EA
:1054C000B145F4DD0DE0DDF80C9007E001465A46E9
:1054D0001198B847206009F1010944444846B14594
:1054E000F4DD0BF1010B06998B457FF765AF4DE7B6
:1054F0003400002010B50D4C0D492068407C51F857
:10550000200048B1C16811B10968042901D00068C0
:10551000F7E708B1FCF7ACF920680021016600F15B
:1055200008014161BDE8104000F02EB834000020B1
:105530004C00002001490968496808478C01002097
:10554000044909680A7C520701D5C96B00E0896BE0
:1055500008607047340000207CB5094C054620687F
:10556000417C084850F82100C1680A6B69469047A1
:1055700020686A4629460830FEF7B5F97CBD000070
:10558000340000204C0000200448016804484A7C94
:10559000083150F82200C268126B10473400002016
:1055A0004C00002001490968096808478C01002067
:1055B000044909680A7C520701D5896B00E0C96B70
:1055C0000860704734000020014AC2E900017047BA
:1055D0007C00002001490968896808478C01002087
:1055E000F8B515460E460124FCF75AF9009058B15B
:1055F000C0681021426A68469047030004D02A46DA
:1056000031460098984700242046F8BDF8B5154665
:105610000E460124FCF744F9009058B1C0680321FC
:10562000426A68469047030004D02A4631460098F3
:10563000984700242046F8BDF8B515460E460124CB
:10564000FCF72EF9009058B1C0680B21426A6846F9
:105650009047030004D02A4631460098984700241A
:105660002046F8BDF8B515460E460124FCF718F99A
:10567000009058B1C0680A21426A6846904703000A
:1056800004D02A4631460098984700242046F8BDA9
:1056900010B5074C2068006BFFF76EFBFFF788FF23
:1056A0002068406BFFF768FBBDE81040FFF748BF7C
:1056B0003400002010B5A0B014211BA8FAF7A7FDF4
:1056C000682101A8FAF7A3FD00231A4615491648D8
:1056D000FCF774F804464FF4A072F0210020FFF7A5
:1056E000ABFF4FF4A072F0210020FFF7BBFF0620B4
:1056F0001D9041F23000ADF878001BA92046FBF761
:1057000011FB0A4809900A480A900A480C900A4876
:1057100010900A4B0A4A01A92046FBF723FB20B050
:1057200010BD000060CF000878CF0008F55B0008CE
:10573000D15B0008DD5B0008B95B0008ED0D0008D7
:10574000990D00082DE9F04106460C461746012C3C
:1057500004D100F02BF90020BDE8F0814FF0FF35B7
:1057600000BF00BF2846F7E72DE9FF4F8DB0174671
:10577000674ADDF870901E9E209812681D4600242E
:105780008AB11D9B1F98CDE90293CDE90460DDE944
:105790001A03CDE9000314682B463A460D98A0473A
:1057A00011B0BDE8F08F0D9A01EB050802EB070C74
:1057B000DDE91A231A43A8F10108ACF1010C012A12
:1057C00006D0C9F108004FF0000B029105909CE053
:1057D000504A1268B2F90A40631A002B06DDED1A2E
:1057E000002DDDDD21461D9C03FB0466B2F90E3061
:1057F000A8EB0303002B02DDED1A002DD0DDB2F97A
:105800000C30ACEB0303002B00DDFF1A0D9B1C1AC0
:10581000B2F90830A3420DDDA3EB040C0CEB00033E
:10582000181A20F007000444A7EB0C0706EBE30668
:1058300003F00700002FB3DDDDF874C01F9BCDE936
:1058400002C6CDE90403CDE90059527C32483B46FB
:1058500050F82200C26855680A462146A8479FE7CB
:105860001B99029808440C902A49401E00900A682F
:10587000B2F90A30834242DCB2F90E10029881423A
:105880003DDB4FF0000A0D980A96D046039034E0B5
:10589000BAF1000F05D10A984FF0080A10F8014B31
:1058A0000A900599AAEB090A34FA01F004FA09F4FE
:1058B000E4B204D117490968097C890717D415494E
:1058C0000968C96B0A680B921F9A0AB152F8200046
:1058D000086003991A98009B0A18DDE90210521E0D
:1058E000FFF7E4FB0B490B980968C96B0860039943
:1058F0001A9808F1010808440390B845C8DB0C98D1
:1059000002901D980BF1010B0644AB45A8DB47E75D
:1059100070000020340000204C000020002818D027
:10592000410817D0810817D0C10817D0010917D036
:10593000410917D0010A17D0410A17D0010B15D021
:10594000C10B13D0010C11D0810C11D0000E11D05D
:1059500020207047012070470220704703207047C5
:1059600004207047052070470820704710207047BA
:10597000122070471820704700B50022FFF7CEFFB5
:10598000012804D0811E062903D808220BE0012239
:1059900009E0A0F10901072901D8102203E011381C
:1059A0000F2800D82022104600BD000010B50022AC
:1059B00040217C48FEF7DAFA6420FEF77FF90122E5
:1059C00040217848FEF7D2FA43F20801E32000F0C4
:1059D000EBF81221E72000F0E7F841F23121EF2047
:1059E00000F0E2F84FF48071012000F0DDF84FF490
:1059F000E061022000F0D8F841F23001032000F00D
:105A0000D3F80021042000F0CFF840F2072108204D
:105A100000F0CAF80021092000F0C6F800210A2091
:105A200000F0C2F800210C2000F0BEF800210D208B
:105A300000F0BAF800210F2000F0B6F80021102085
:105A400000F0B2F80721112000F0AEF8002112207A
:105A500000F0AAF80021132000F0A6F8C820FEF7F5
:105A60002DF941F29021102000F09EF840F22721FC
:105A7000112000F099F83220FEF720F919211220A8
:105A800000F092F83220FEF719F94FF4E851132094
:105A900000F08AF82821292000F086F80C212B201C
:105AA00000F082F83220FEF709F90021202000F0F2
:105AB0007BF80021212000F077F80021302000F051
:105AC00073F840F20361312000F06EF840F20621D5
:105AD000322000F069F840F20621352000F064F829
